:1000000019C033C032C031C030C02FC02EC02DC087
:100010002CC02BC02AC029C028C027C026C025C09C
:1000200024C023C022C021C020C05BC01EC01DC090
:100030001CC01BC011241FBECFEFD4E0DEBFCDBF5C
:1000400011E0A0E0B1E0E6E4F3E002C005900D921B
:10005000A631B107D9F711E0A6E1B1E001C01D92C8
:10006000A332B107E1F716D16CC1CACF9093C50096
:100070008093C40088E08093C10086E08093C20032
:100080000895FC0106C09091C00095FFFCCF8093BD
:10009000C60081918111F7CF0895209121013091FF
:1000A000220121153105A1F0DC01CB01821B930B4C
:1000B000A109B10942E0B595A795979587954A950D
:1000C000D1F7820F931F909322018093210104C0E6
:1000D000709322016093210180912101909122016E
:1000E00008951F920F920FB60F9211242F933F93F2
:1000F0004F935F936F937F938F939F93AF93BF9330
:10010000EF93FF9380911601882309F459C016BC20
:100110008091190190911A01A0911B01B0911C01CD
:100120002091780030917900820F931FA11DB11D9D
:100130008093190190931A01A0931B01B0931C01A5
:100140008091170190911801019690931801809366
:10015000170180911701909118018F3F910579F156
:1001600070F18091190190911A01A0911B01B09139
:100170001C0154E0B695A795979587955A95D1F7A8
:1001800080931D0190931E01A0931F01B093200145
:1001900060911D0170911E0180911F0190912001BD
:1001A0007CDF1092190110921A0110921B0110921B
:1001B0001C01109218011092170110921601A99AB1
:1001C000FF91EF91BF91AF919F918F917F916F912F
:1001D0005F914F913F912F910F900FBE0F901F9005
:1001E00018950F931F9390917B00936090937B00E1
:1001F00090917A00906290937A009EE497BD16BC2D
:1002000080937C0081E08093160185B5836085BD75
:1002100007C083B7816083BF889583B78E7F83BF14
:10022000809116018111F5CF15BC00911D0110912F
:100230001E0120911F0130912001B801C9011F91B9
:100240000F9108958091C00085FFFCCF8091C00080
:1002500086FFFCCF8091C00080648093C000089529
:100260003C98349BFECF81E0BCDFDC01CB014AE04F
:1002700050E060E071E02DD004DF82E191E001DF29
:10028000E1DF87EE93E00197F1F700C000003499B9
:10029000FECF0895789483B7817F826083BF84B155
:1002A000866084B988E090E0E1DE80917E00836022
:1002B00080937E0080917A00876880937A00809195
:1002C0007A00886080937A008DE091E0DADEC8DF02
:1002D000FECFFB019F0142306CF045325CF4642F8D
:1002E00077271BD0805D8A330CF0895D8193CB0129
:1002F0000097A9F71082C90100C0DC01FC01672F3B
:1003000071917723E1F7329704C07C916D937083EC
:100310006291AE17BF07C8F30895AA1BBB1B51E13A
:1003200007C0AA1FBB1FA617B70710F0A61BB70B65
:10033000881F991F5A95A9F780959095BC01CD010A
:060340000895F894FFCFC0
:10034600313233343536373839002C200048656C65
:060356006C6F0D0A0000AF
:00000001FF
